:020000040800F2
:1000000000000220651C0008631C0008611C000839
:10001000611C0008611C0008611C00080000000051
:10002000000000000000000000000000631C000849
:10003000631C000800000000631C0008631C00082B
:10004000611C0008611C0008611C0008611C00089C
:10005000611C0008611C0008611C0008611C00088C
:10006000611C0008611C0008611C0008611C00087C
:10007000611C0008611C0008611C0008611C00086C
:10008000611C0008611C0008611C0008611C00085C
:10009000611C0008611C0008611C0008611C00084C
:1000A000611C000829050008611C0008611C00088B
:1000B000611C0008611C0008611C0008611C00082C
:1000C000611C0008611C0008611C0008611C00081C
:1000D000611C0008611C0008611C0008611C00080C
:1000E000611C0008611C0008611C0008611C0008FC
:1000F000611C0008611C0008611C0008611C0008EC
:10010000611C0008611C0008611C0008611C0008DB
:10011000611C0008611C0008611C0008611C0008CB
:10012000611C0008611C0008611C0008611C0008BB
:10013000611C0008611C0008611C0008611C0008AB
:10014000611C0008611C0008611C0008D50500083E
:10015000611C0008611C0008611C0008611C00088B
:10016000611C0008611C0008611C0008611C00087B
:10017000611C0008611C0008611C0008611C00086B
:10018000611C000838B57E487E4C012101F06EF9F3
:100190007D48102101F06AF920464FF428530221CE
:1001A000002200F060FE204601214FF4285200F0AA
:1001B0007CFE4FF4A85320460221002200F053FE9B
:1001C00020460121A4F588344FF4A85200F06DFEBA
:1001D000204600F093FE00210B460A46204600F020
:1001E000FCFE2046012100F021FF0021204600F006
:1001F0001FFF204600F0FAFE204600F0FCFE4AF207
:100200001041204600F01EFF204601F009F920466B
:1002100001F0FAF8204601F0EBF8204601F0DCF896
:10022000204601F0CDF82046002101F005F92046D6
:10023000002101F04BF82046012101F047F820464B
:10024000022101F043F82046032101F03FF8204647
:10025000042101F03BF82046052101F037F8204643
:10026000002100F0B4FF06222046002100F0ECFE41
:100270002046002100F0C6FF2046002101F058F87A
:100280002046012100F0BEFF45F20825204601214D
:1002900001F04EF82A462046002101F075F820466C
:1002A000022100F094FF06222046022100F0CCFE3D
:1002B0002046022100F0A6FF2046022101F038F876
:1002C0002046032100F09EFF2046032101F030F874
:1002D0002A462046022101F057F82046042100F06A
:1002E00076FF06222046042100F0AEFE20460421BF
:1002F00000F088FF2046042101F01AF8204605216D
:1003000000F080FF2046052101F012F82A46204621
:10031000042101F039F82046002100F0A5FF204615
:10032000012100F0A1FF2046022100F09DFF2046A0
:10033000032100F099FF2046042100F095FF0521DC
:10034000204600F091FF204600F050FE204600F0CD
:1003500061FE204601F028F80121204601F078F8DE
:10036000204600F052FE204600F04AFE20460121C1
:1003700000F02AFE1920BDE8384001F0BBBC00BFE8
:1003800044380240001002403038024010B5114C91
:100390001148082101F06AF82046012100224FF49B
:1003A000805300F060FD2046012100224FF40053ED
:1003B00000F059FD2046012100224FF4804300F057
:1003C00052FD2046012100224FF40043BDE81040B9
:1003D00000F049BD000C02403038024010B5334CEB
:1003E00033484FF4807101F041F82046012101F0BB
:1003F0003DF820462F4C042101F038F82046032117
:100400000022022300F02FFD2046032100220423B6
:1004100000F029FD2046032104F500640022082392
:1004200000F021FD204603210022022300F01BFDE5
:10043000204603210022042300F015FD2023032180
:100440000022204600F00FFDA4F56844002000F0D3
:10045000E9FB204600F068FB204600F074FB2046D4
:100460000121002200F074FB20460221002200F04E
:100470006FFB20460321002200F06AFB20460B217F
:10048000002200F065FB20460C21002200F060FBFA
:1004900020460F21002200F05BFB002000F0CCFB87
:1004A0002046BDE8104000F0B7BB00BF3038024026
:1004B000443802400000024008B5094800F082FCC0
:1004C000FFF764FFFFF78AFF00F056F804200549A4
:1004D0004FF4804200F090F8BDE80840FFF752BEAC
:1004E000F47C0008000C02401FB504AA044602F880
:1004F000101D01216A4600F047FB204600F019FB61
:10050000204600F083FB0028FAD0204600F082FB52
:1005100007EE900AB8EE670ADFED027A20EE270AAE
:1005200004B010BDF2D23D3A0148012100F050BDA7
:100530000000014010B5FFF7BFFF0C4C0C48012133
:10054000FFF7D2FF23684CF24F320133934210EE93
:10055000100A2360F1DD06F043FD02460B46054814
:1005600002F046FA00232360E7E700BFC40800203A
:1005700000200140C47B000808B51348012100F0A9
:1005800075FF1248802100F071FF4FF4D0531048DE
:100590000221002200F067FC0D480A214FF4D052DE
:1005A00000F083FC00F0E4F94320202101F0B0FBCF
:1005B000432001F09FFB00F081F9012803D00120C6
:1005C00000F00EF8F7E708BD30380240343802403A
:1005D00000000240014B186800F07ABFD08800206C
:1005E0000022824205DA034B00BF013BFCD10132FD
:1005F000F7E77047A08601002DE9F0410A2306467F
:100600000D4617460F4C00BF013CFCD1013BF9D110
:100610001C46B44213DA1FFA87F82846414600F018
:1006200019FC094B00BF013BFCD12846414600F0B4
:1006300013FC054B00BF013BFCD10134E9E7BDE8E9
:10064000F08100BF40420F0000127A000023C25C1C
:100650000133002AFBD11846704710B50446FFF756
:10066000F5FF0022831E9A4206DAA15CE05CA054EA
:10067000E1540132013BF6E710BD70B5002280EA7B
:10068000E074A4EBE0740A2694FBF6F506FB15442F
:1006900030348C54531C2C460DB11A46F3E7002815
:1006A0001C4602DA931C2D220A550022CA54084621
:1006B000BDE87040FFF7D1BF08B5034B53F82030B9
:1006C000DB68984708BD00BF0000002008B5034B59
:1006D00053F820301B69984708BD00BF0000002078
:1006E0002DE9F04105460F4690460024084B53F88B
:1006F00024602946306802F02FFA08B10134F5E78A
:10070000736828463946424698472046BDE8F0813E
:100710000000002008B5034B53F820309B68984731
:1007200008BD00BF0000002030B5204B1C68022C23
:1007300085B0054616D10C2220461D4902F04AFB21
:1007400069462846FFF799FF6846FFF77FFF69462D
:100750000246204602F03EFB20461649082202F0DF
:1007600039FB01E001341C60134A144B116801B9D4
:10077000136010680544EB1AB3F5004F12DD0A2030
:100780000F494FF48042FFF737FF0A200C494FF41E
:100790000052FFF731FF0B490F22022002F01AFB33
:1007A00001F0D0FC044B1D6005B030BDC80800202E
:1007B000CC7B0008D97B0008CC880020CC08002026
:1007C000000C0240E27B00084FF400534B60002015
:1007D00070474FF400534B60002070470020704773
:1007E0004878202804D0B0F122035842584170477D
:1007F0001888062894BF002001207047014B012271
:100800001A6070471C0000207047000030B51D4B77
:1008100087B019601C4B012100930222402304463B
:1008200000F05CFE194B0025009320468221022235
:10083000402300F053FE204600958321032210231D
:1008400000F04CFE204621217F22114B01F00BF9D4
:10085000A1238DF80C3020238DF80D300223ADF844
:10086000123003238DF814302046832103AA0A2373
:10087000ADF80E50ADF810508DF8155000F04DFE4B
:1008800007B030BDBC89002095080008FD070008AE
:10089000E107000808B5074A0121402300F043FEA4
:1008A000024628B104480349BDE8084000F00EB9EB
:1008B00008BD00BF58890020A4890020014B18689A
:1008C000704700BFBC89002000207047002070479F
:1008D00038B505460C46054B822118682A46A3B256
:1008E00000F01BFE0028F6D038BD00BFD0880020E5
:1008F0002DE9F041884617460025BD421EDA114C0D
:10090000114E216818F80530735401310129216016
:10091000304603D1FFF7DCFF0023236018F80530D1
:100920000A2B09D1216808480D2373540131216035
:10093000FFF7CEFF002323600135DEE73846BDE830
:10094000F08100BF54890020C089002038B50D46D1
:100950001446064800F080F8A042FADB29462246F9
:100960000248BDE8384000F087B800BFA4890020E5
:100970001FB523484FF4807100F05AF830B10520BC
:1009800020494FF48042FFF737FEF8E71E4B1A6804
:100990005C68083314441B681C446FF00301414336
:1009A0001A4A24FA01F1131801F00F01013830310D
:1009B00010F1080FD971F0D10023D15C392902D987
:1009C0001248073119540133082BF6D10023137252
:1009D000032300930E4B0F4A0193802302930E4989
:1009E0000E4B0F480F4C00F04FFD0F49206000F0F8
:1009F00045FF20680D4904B0BDE8104000F066BD19
:100A0000A4890020000C0240107AFF1F9889002062
:100A1000D4880020307C0008107C000810000020E2
:100A2000647D0008D08800200D080008090800082F
:100A300070B50025044645608560C5600561456167
:100A400008460E4601F032FC206010B16660284670
:100A500070BD4FF0FF3070BDC26883689A42BCBF62
:100A600040681218D01A704710B50446FFF7F4FF1B
:100A70006368181A10BD0000F8B504460E46124807
:100A80004FF40041174600F0EAF972B66069B8B950
:100A900001236361B84203DAA368E568AB4202D17F
:100AA000002363610DE02568EB5C3354A36865683F
:100AB0000133AB42A36004BF0023A3600130E9E728
:100AC000002062B6F8BD00BF000C0240F8B5044635
:100AD0000F4614484FF40051154600F0C0F972B6A5
:100AE0002669E6B9012323612046FFF7BDFFA8422E
:100AF000304611DDA8420DDA395CE3682268D15432
:100B0000E368626801339342E36004BF0023E3605B
:100B10000130EFE725EAE5700023236100E00020C3
:100B200062B6F8BD000C0240436823F48073436052
:100B30007047836843F0804300F1080283601368C4
:100B40005B00FCD47047836823F002038360704726
:100B5000092910B50BD8046901EB410107238B402B
:100B600024EA030302FA01F11943016110BD0323D2
:100B70000A395943C46807238B4024EA03038A4097
:100B800043EA0201C16010BD10292DE9F0433BD8B2
:100B900000236FF03B0501241E461F469C468C42F5
:100BA0002CD8062C09D812F803904FF0050808FB42
:100BB00003F809FA08F846EA0806A4F107085FFAFC
:100BC00088F8B8F1050F07D812F8039005F11E0850
:100BD00009FA08F847EA0807A4F10D085FFA88F84F
:100BE000B8F1030F05D812F8038008FA05F84CEAAB
:100BF000080C0134E4B201330535D0E701394CEA81
:100C00000151C16207634663BDE8F0830068C0F329
:100C100040007047C06C7047836843F001038360F5
:100C200070470000034B1A6822F4403210431860EA
:100C3000704700BF04230140024B1A68104318603C
:100C4000704700BF0423014004281CD8DFE800F0EF
:100C500003080D1217000C4B1B689B01FBD5704756
:100C6000094B1B689803FBD57047074B1B68990716
:100C7000FBD57047054B1B689A07FBD57047044BA3
:100C80001B689B07FBD57047003802407038024054
:100C90007438024001280AD002D302280ED07047CF
:100CA000094B1B6803F00303022BF9D17047064B75
:100CB0001B6803F00303012BF9D17047024B1B683B
:100CC0009A07FBD1704700BF08380240042817D8A4
:100CD000DFE800F003080D0F11000A4B1A6842F01C
:100CE00080720CE0074B1A6842F4803207E0054B33
:100CF00002E0054B00E0054B1A6842F001021A6061
:100D0000704700BF0038024070380240743802401B
:100D1000042817D8DFE800F003080D0F11000A4B74
:100D20001A6822F080720CE0074B1A6822F48032B5
:100D300007E0054B02E0054B00E0054B1A6822F086
:100D400001021A60704700BF00380240703802404C
:100D500074380240034B1A6822F0030210431860F3
:100D6000704700BF08380240034B1A6822F4604203
:100D700042EA40301860704708380240034B1A6856
:100D800022F4E05242EA802018607047083802409E
:100D9000034B1A6822F0F00242EA00101860704714
:100DA0000838024040EA036343F48003520843EAF0
:100DB0008111531E024A41EA03411160704700BF8E
:100DC0000438024010B504460220FFF77FFF0220DE
:100DD000FFF73AFF0020FFF7BDFF0120FFF776FF86
:100DE0000120FFF731FFE07B00B1012000F0A0FF00
:100DF000207BFFF7CDFF607BFFF7C0FFA07BFFF7F5
:100E0000B3FF2279637920786188FFF7CBFF0E4B1F
:100E10001A6842F080721A601A689101FCD5A068C5
:100E200000F01AFB0220FFF795FF0020FFF732FFCA
:100E30002369064A13606269054B0220BDE8104031
:100E40001A60FFF765BF00BF003802402000002095
:100E50002400002081617047090481617047436963
:100E60005940416170472DE9F0410668C56800248A
:100E700043FA04F7FF0711D567004FF0030C0CFA93
:100E800007FC6FEA0C0C01FA07F80CEA06060CEAFC
:100E9000050502FA07F746EA08063D430134102C1F
:100EA000E6D10660C560BDE8F081F0B5056A446A28
:100EB000002342FA03F6F70707D59E000F27B74035
:100EC00025EA070501FA06F635430133082BF0D170
:100ED000002303F1080642FA06F6F60707D59E003E
:100EE0000F27B74024EA070401FA06F6344301331A
:100EF000082BEED105624462F0BD000008B52D4B11
:100F0000984236D010D8A3F50063984224D003F558
:100F10008063984226D0B0F1804F49D12648012104
:100F200000F0A8FA244815E0244B98422FD004D8AA
:100F3000A3F58063984223D008BD214B984204D08A
:100F400003F58063984229D008BD1E48012100F0B6
:100F500091FA1C48012127E01748022100F08AFA83
:100F6000154820E01448042100F084FA12480421B6
:100F70001AE01148082100F07DFA0F48082113E01B
:100F80000D48102100F076FA0B4810210CE00A48B9
:100F9000202100F06FFA0848202105E009480221CD
:100FA00000F068FA07480221BDE8084000F066BA80
:100FB00008BD00BF000C0040203802400014004073
:100FC0000000014024380240C3681943C1607047E3
:100FD000036923EA01010161704710B504681343F6
:100FE00024F45C7419430C43046010BD036843F09F
:100FF000800303607047036823F0080303607047B1
:10100000036823F0020303607047036843F00103A1
:1010100003607047044B20F480629A4203D1436816
:1010200023F0010343607047000001408162704774
:10103000034B20F480629A4208BF0163704700BFEF
:1010400000000140C1627047062900F2BF80DFE85E
:1010500011F00700BD003200BD005E00BD008C0035
:10106000836923F00303836183698361836923F0C8
:1010700070038361072A00F2A980DFE802F02E5A8C
:1010800004080C101418836943F0200384E083697A
:1010900043F0300380E0836943F040037CE08369E0
:1010A00043F0500378E0836943F0600374E08369A0
:1010B00043F0700370E0836923F4407383618369B4
:1010C0008361836923F4E0438361072A7ED8DFE8E4
:1010D00002F00460060A0E12161A83695CE0836946
:1010E00043F4005358E0836943F4405354E0836968
:1010F00043F4804350E0836943F4A0434CE08369A8
:1011000043F4C04348E0836943F4E04344E0836927
:1011100023F00303836183698361C36923F0700350
:10112000C361072A52D8DFE802F03204080C101419
:10113000181C836943F010032EE0C36943F02003B9
:1011400043E0C36943F030033FE0C36943F0400329
:101150003BE0C36943F0500337E0C36943F06003E9
:1011600033E0C36943F070032FE0836923F44073D5
:10117000836183698361C36923F4E043C361072A00
:1011800024D8DFE802F004060B0F13171B1FC369F6
:101190001BE0836943F4805383617047C36943F460
:1011A000005312E0C36943F440530EE0C36943F4B3
:1011B00080430AE0C36943F4A04306E0C36943F4F3
:1011C000C04302E0C36943F4E043C36170470629AA
:1011D00016D8DFE801F0041508150D151100836914
:1011E00043F0080302E0836943F4006383617047BE
:1011F000C36943F0080302E0C36943F40063C361B9
:1012000070470000062915D8DFE801F0041408141F
:101210000C141000036A23F002030AE0036A23F0AF
:10122000200306E0036A23F4007302E0036A23F458
:10123000005303620B4B20F480629A4211D10329C0
:1012400007D0052909D001290BD1036A23F008032F
:1012500006E0036A23F0800302E0036A23F40063DC
:101260000362704700000140062915D8DFE801F04D
:10127000041408140C141000036A43F001030AE07C
:10128000036A43F0100306E0036A43F4807302E04C
:10129000036A43F4805303620B4B20F480629A424A
:1012A00011D1032907D0052909D001290BD1036ADF
:1012B00043F0040306E0036A43F0400302E0036ADC
:1012C00043F480630362704700000140062915D88B
:1012D000DFE801F0041408140C141000036A23F072
:1012E00001030AE0036A23F0100306E0036A23F413
:1012F000807302E0036A23F4805303620B4B20F4F3
:1013000080629A4211D1032907D0052909D0012909
:101310000BD1036A23F0040306E0036A23F04003C1
:1013200002E0036A23F48063036270470000014017
:10133000144B20F480629A4223D1062921D8DFE899
:1013400001F004080C1014181C00436823F4807387
:1013500016E0436823F4007312E0436823F48063CB
:101360000EE0436823F400630AE0436823F48053EB
:1013700006E0436823F4005302E0436823F480430B
:10138000436070470000014006290CD8DFE801F0F7
:10139000040B060B080B0A00426370478263704718
:1013A000C263704702647047044B20F480629A4223
:1013B00003D1436C43F40043436470470000014091
:1013C000044B20F480629A4203D1436C23F480439F
:1013D0004364704700000140044B20F480629A424D
:1013E00003D1436C43F40053436470470000014051
:1013F000044B20F480629A4203D1436C23F480535F
:101400004364704700000140044B20F480629A421C
:1014100003D1436C43F40063436470470000014010
:10142000044B20F480629A4203D1436C43F48063FE
:101430004364704700000140044B20F480629A42EC
:1014400002D1436C19434164704700BF0000014062
:101450004369194341617047034B1A6822F0070240
:1014600010431860704700BF003C024003681943F6
:10147000016070470368194301607047036823EAFD
:1014800001010160704700002DE9F0410546006848
:1014900098460E4617468047069BC0F8C850C36062
:1014A000079B0361BDF820308382054BC366054B63
:1014B0008366054B80E8C0014366BDE8F08100BF4C
:1014C0008D1A0008E71A00086D1B0008C1617047FB
:1014D00008B5D0F8C8305B6A984708BD37B5069C98
:1014E000D0F8C8500094AC68A04703B030BD37B501
:1014F000002405468475C475214622464023009485
:10150000FFF7ECFFD5F8C83028465B6821469847BE
:10151000EB6903B1984703B030BD10B5D0F8C840AF
:10152000E469A04710BD10B5D0F8C840246AA047B0
:1015300010BD08B5D0F8C8301B69984708BD08B57C
:10154000D0F8C8309B69984708BD38B54B88C27D34
:101550009A4204460D460FD0C375D0F8C830DB68F8
:101560009847D4F8C4203AB100236364E364636508
:10157000E365204669889047012038BD1988012914
:1015800084BF012119801368C27D01201A70704741
:101590004A8812B91A800120704700207047012044
:1015A0001880136800221A7070471988022984BFB6
:1015B00002211980116800230B70126801205370FA
:1015C00070471988022984BF0221198011680023FD
:1015D0000B70126801205370704738B514461A8892
:1015E0002568022A84BF02221A808988C9B2FFF7BF
:1015F000A6FF003018BF01202870236800225A700F
:10160000012038BD08B589880122C9B2FFF791FFD2
:10161000012008BD08B589880022C9B2FFF789FFFB
:10162000012008BD10B50A7872B94C887F2C0BD800
:10163000D0F8C830847593F830201AB149885B68B7
:10164000C9B29847012010BD002010BD2DE9F04F10
:10165000044648881D46C3B2000A022887B01746D0
:101660000FD0032800F0CB80012840F003812368CD
:10167000136023682A881B789A4238BF13462B8050
:10168000F9E020692E8810600D27D4F804800190BD
:101690005F4308EB070318F807400293A64238BFE0
:1016A00034461946224601F0BBF8019B18F8077032
:1016B000361B00202344B6B20390029803990279A6
:1016C0008A4240F29880039902980C224A4305927C
:1016D0000599D0F809200A44D2F80480B8F1000F27
:1016E00014D098F800904E4538BFB14618464A4687
:1016F000414601F095F898F800200346C9EB06062C
:101700004C4417444B44B6B2A4B2BFB20022029874
:1017100004920599D0F809200598114412580498AC
:10172000904263DA0498D1F808B04FF0150A0AFB2A
:1017300000FA0BEB0A081BF80A904E4538BFB14679
:101740004A461846414601F06BF803464B44C9EB44
:101750000606A144D8F81140D8F80D101BF80AA0CD
:10176000B6B2A642B8BF3446A4B22246184601F02B
:1017700057F8D8F811201FFA89F903469244361B0E
:10178000234417FA8AF74C44B6B2A4B2BFB24FF062
:10179000000998F804204A4524D94FF0070BD8F8DF
:1017A00009C00BFB09FB18461CF80BA0CDF800C0C4
:1017B000564538BFB2460CEB0B01524601F030F8EB
:1017C000DDF800C01CF80B200346CAEB06065444A3
:1017D000174409F101095344B6B2A4B2BFB21FFACB
:1017E00089F9D6E704994A1C92B290E703994A1CFA
:1017F00092B2039261E7019B5F802C8038E02669FA
:1018000053B90923B3700423F37033702B88042B6E
:1018100028BF04232B8028E0A068013B58B3E2686E
:10182000934227DA898840F20942914222D150F846
:1018300023004FEA830801F09DFA01304300DBB238
:1018400033702A88934228BF13462B8000232A88AE
:101850005208013A934208DAA26852F80820D15C93
:1018600006EB430201335180F1E7032373703E60BE
:10187000012000E0002007B0BDE8F08FC0F8C410E0
:101880007047000038B54C78092C05D8044D55F840
:1018900024401CB1A04738BD002038BD204638BDCB
:1018A0000C7D000838B54C780B2C05D8044D55F844
:1018B00024401CB1A04738BD002038BD204638BDAB
:1018C000347D000810B54C78012C03D009D3032CCB
:1018D00003D004E04C8834B101E04C882CB10020E6
:1018E00010BD034C02E0034C00E0034CA04710BDC8
:1018F000DB150008151600080516000810B50C7851
:1019000014F0600F12D104F01F04012C0AD005D38B
:10191000022C0BD1BDE81040FFF7D4BFBDE810404A
:10192000FFF7B0BFBDE81040FFF7BCBF002010BDFF
:1019300010B5002104460122FFF7FBFD002384F8C7
:101940002C3010BD38B50268838FC58ED279ED1A60
:101950009542A8BF1546826BADB21A4400212B46B2
:101960000446FFF7E0FDA84205D02046FFF7E0FF60
:101970004FF0FF3038BDA38F0344A38738BD38B57F
:101980000368826BDD79838F9D4204464FF000012E
:101990000FD22B46FFF7C1FD022384F82C302368B9
:1019A000A26BD9790A44A263DB79A28FD31AA387E9
:1019B00038BDFFF7B2FD032384F82C300023A38742
:1019C000A36338BD2DE9F34104460E4600F14408F7
:1019D000002558F8057057B92046314604F1380201
:1019E00004F13C0302B0BDE8F041FFF787BF08EB0C
:1019F0000503317858791A7900EA01039A4203D035
:101A00000835202DE5D1E7E704F140030093204697
:101A1000314604F1380204F13C03B8470128EFD8FD
:101A200002B0BDE8F08110B5026982638A79CB7992
:101A300042EA032383870446FFF7C4FF70B1A18FF6
:101A4000204619B1BDE81040FFF799BF0B460A4682
:101A5000FFF763FD042384F82C3010BD2046BDE859
:101A60001040FFF765BF70B5002500EBC504666C3C
:101A70002EB10135042DF8D14FF0FF3070BD84F840
:101A8000481084F849206364304670BD70B500F199
:101A90003006002505642946324608230446FFF730
:101AA00042FD082804D02046BDE87040FFF740BF43
:101AB000E38E1BB194F93020002A05DA2046314626
:101AC000BDE87040FFF7AFBFA28A9A42EBD322690C
:101AD000A587A2632268D2799A4234BF05230623E0
:101AE00084F82C3070BD90F82C30062B10B50446CD
:101AF00010D0072B24D0052B33D1FFF723FF00286C
:101B000033DBA38FE28ED21A2368DB799A422CDC76
:101B1000062310E0FFF716FF002826DB204604F11D
:101B20003001FFF74FFF48B100210B4620460A461F
:101B3000FFF7F3FC042384F82C3010BD204610E09E
:101B400000210B460A46FFF7EEFC002384F82C30F8
:101B5000236C1BB1204604F1300198470023236415
:101B600010BDBDE81040FFF7E3BE10BD90F82C306B
:101B7000032B10B5044607D0042B07D0022B1CD131
:101B8000BDE81040FFF7FBBE072313E0036C13B161
:101B900000F13001984794F8303053B994F831305F
:101BA000052B06D1D4F8C830618E5B682046C9B2D7
:101BB0009847002384F82C3010BDBDE81040FFF793
:101BC000B7BE00001D4B02221A6053F8082C42F0E9
:101BD000800243F8082C5A6A42F410225A62184BC9
:101BE0001A68002AFBDA1A6842F001021A601A68C1
:101BF00012F00102FBD1134B1348196841F08041E8
:101C000041F470511960114B196841F003011960DA
:101C1000C3F800260E4A80231360A0F8CC300D4B89
:101C20001A6842F001021A600B4A1A610B4B0F222C
:101C30001A60012243F80C2C704700BF14000050BA
:101C4000100000500C000050008A002000080050D6
:101C50002400005008000050182804801C08005080
:101C6000FEE770470022184918485318834204D2EF
:101C7000174BD35853500432F5E7164A934203D218
:101C800000221A600433F8E7134C144B9C4203D231
:101C900054F8043B9847F8E7114C124B9C4203D28E
:101CA00054F8043B9847F8E70F4B104C1A6842F47D
:101CB00070021A60FEF73EFC0D4B9C4203D254F8B2
:101CC000043B9847F8E700BF00000020C40800204C
:101CD000247F0008208B00201C7F00081C7F000848
:101CE0001C7F00081C7F000888ED00E01C7F0008B6
:101CF0001C7F0008054B420903EB820300F01F0024
:101D0000012202FA00F01860704700BF00E100E015
:101D1000502804D900F00F00044BC154704700F163
:101D2000604000F564400170704700BF14ED00E0B2
:101D300020B9064B1A6842F4804205E0012804D11C
:101D4000024B1A6802F480421A607047007000402B
:101D5000D0F8C830DB6AD3F8002822F4FE6242EAE9
:101D60000111C3F8001870472DE9F04711F07F0505
:101D7000089ED0F8C84003F07F073AD13F2BE26AB3
:101D800002D9C2F8005909E01F2B01D9012103E053
:101D90000F2B8CBF02210321C2F80019E26ABFB2E7
:101DA000C2F81079E26AD2F8001941F00841C2F88D
:101DB0000019E26A47F0005747F40027C0F8D470D2
:101DC000C2F8107BE26AD2F8001B41F00841C2F869
:101DD000001B618EE26A9B0841EA03419162B0F800
:101DE000CC2013449BB2A0F8CC30A0F8CE30BDE894
:101DF000F08711F0800F4FEA824A2CD0B0F8CCC0A7
:101E0000E16A4FEA930805F140094CEA084241F8BB
:101E10002920E16AC444A0F8CCC001F511614FF05B
:101E2000200C1CFB0511BFB20F604FF410671CFBA8
:101E30000577E16A4AF0184242F400427C581343A5
:101E400043EA855323437B503EB30C2303FB050039
:101E50004666BDE8F087E26A00EB850147F400279B
:101E6000C1F8D47002F5316C202111FB05CC4AF089
:101E70001442CCF800704FF4306711FB0577E16A2B
:101E800042F400427C58134323437B502EB10C2371
:101E900003FB05008666BDE8F087BDE8F087B0F873
:101EA000CE30A0F8CC30704710B5D0F8C83051B95A
:101EB000D86AD0F8004912B144F4001401E024F4C7
:101EC0000014C0F80049080646BF01F07F01483100
:101ED0005831490122B1DB6ACA5842F4001208E0C5
:101EE000DA6A885820F400108850DB6ACA5842F039
:101EF0008052CA5010BD11F0800FD0F8C8301ABF00
:101F000001F07F01483158314901DB6AC858C0F3FC
:101F1000405070470B0610D44318583183F8D02036
:101F2000D0F8C8304901DB6A1AB1CA5842F00062E1
:101F300002E0CA5842F08062CA50704770B5D0F8CB
:101F4000C840E06A01F07F01202500F5116015FB13
:101F50000100066836031BD443F4002606604FF4E4
:101F6000106015FB0105E06A2E5846F004462E501D
:101F7000E06A013100EB01300146C418641A002CFC
:101F800004DD141A645841F8044BF6E7184670BD96
:101F9000002070BDF7B50D461146B0F8E42093421D
:101FA00034BF1E461646D0F8C830DB6A921B6F1C41
:101FB000A0F8E420044603EB0737324608467B1AB4
:101FC000032A034404DD1B68043A40F8043BF6E7A7
:101FD0002AB11B6802A941F8043D00F021FCD4F8A5
:101FE000C830D96A04EB8500202201F5316112FB6B
:101FF0000511D0F8D4002C4408604FF4306112FB76
:102000000512DB6A94F8D010D05800290CBF4FF0AD
:1020100004414FF0084101433046D15003B0F0BDB8
:10202000D0F8C820F8B5D36A5E69B504044609D56E
:102030004FF400515961538EA0F8CC30BDE8F84000
:10204000FFF755BAF10631D51B6A03F4B012B2F5A9
:10205000802F67D103F4F01203F00F05C3F30A13C6
:10206000A0F8E430B2F5402F14BF012202224FF451
:102070007A7300BF013BFCD1032303FB052304EB70
:1020800083035B6E13B12046294698470135B4F8A7
:10209000E4102D0300238B4205DAD4F8C820D26A5D
:1020A0000433AA58F7E70023A4F8E4300025D4F855
:1020B000C830DB6A6F0103F60813DB59DA070ED567
:1020C0000C2303FB05435B6E13B12046E9B298472E
:1020D000D4F8C830DB6A03F608130122DA5101355F
:1020E000042DE4D1330508D5236A03B19847D4F809
:1020F000C830DB6A4FF400625A61002E08DA636A66
:1021000003B19847D4F8C830DB6A4FF000425A61F7
:10211000370707D5A36A03B19847D4F8C830DB6AFC
:1021200008225A61F8BDD0F8C830DB6AD3F8042819
:1021300011B142F0020201E022F00202C3F80428C9
:102140007047000008B5062000F0A6FC012004F04E
:10215000E1FD00BF45F2CD51C0F6000100F080B8AE
:102160002DE9F04F846B83B00746002C70D1456891
:10217000C0F8E04242F25513C0F60003032007F511
:102180003B710422FB63C7F8E402C7F8E81205F1CB
:102190005C00AA812C606C60AC606C66EC812C6188
:1021A0006C61AC612146082200F0D4FB42F6D52BCD
:1021B000BE68ED6142F6F92A42F6313942F65138ED
:1021C0000123C0F6000BC0F6000AC0F60009C0F6F5
:1021D00000080922C5F820B0C5F824A0C5F8289049
:1021E000C5F82C802146F381B28134607460B460FC
:1021F000746634617461B461082206F15C00019375
:1022000000F0A8FBFD68C6F820B012200222C6F834
:1022100024A0C6F82890C6F82C80F6612146A88133
:10222000EA812C606C60AC606C662C616C61AC61A6
:1022300005F15C00082200F08DFB019BC5F820B081
:10224000C5F824A0C5F82890C5F82C80ED61BB63C3
:1022500003B0BDE8F08F00BF704700BF704700BFFC
:102260002DE9F04110F5387788461AD000267D68B0
:10227000BC68013D0FD4A389012B05F1FF3506D9B8
:10228000B4F90E300133204601D0C04706436B1C21
:1022900004F16804EFD13F68002FE8D13046BDE873
:1022A000F0813E463046BDE8F08100BF40F2504329
:1022B000C2F200030146186800F000B82DE9F04FA3
:1022C00001F10B05162D87BF25F00705EB0F002345
:1022D00010258D422CBF194643F0010183B00746FB
:1022E000002940F0B58000F07FFBB5F5FC7F1FD2E0
:1022F00040F25446C2F200064FEAD50C06EBCC037E
:10230000DC689C4200F0F4816368E268A16823F015
:102310000303234438465D68CA6045F001059160B7
:102320005D6000F063FB0834204603B0BDE8F08F29
:102330005FEA552C04BF7E214FF03F0C40F08F80A8
:1023400040F25446C2F2000606EB8101CC68A1427D
:1023500006D10DE0002B80F26381E468A14207D032
:10236000626822F00302531B0F2BF3DD0CF1FF3CDC
:102370000CF1010C40F25443C2F20003346903F142
:10238000080E744508BF5A6822D0616821F0030125
:102390004A1B0F2A00F39081002AC3F814E0C3F807
:1023A00010E067DAB1F5007F80F05F81C90803EBC8
:1023B000C1004FEAA1085A688168E0604FF0010946
:1023C00009FA08F848EA0202A1605A608460CC6009
:1023D0004FEAAC0301209840904258D8024206D1FF
:1023E0002CF0030C400002420CF1040CFAD006EB76
:1023F000CC084446E146E3689C4207D16FE1002ADD
:1024000080F28081DB689C4200F06981596821F08C
:1024100003014A1B0F2AF2DD1C46D3F80CC054F806
:10242000088F591945F0010942F00105C3F80490DD
:102430003846C8F80CC0CCF8088071613161C1F829
:102440000CE0C1F808E04D608A5000F0CFFA6BE76D
:102450000C2300240360204603B0BDE8F08FBCF1DC
:10246000040F00F2EE804FEA951C0CF1380C4FEA95
:102470004C0165E7214438464B6843F001034B604B
:1024800000F0B4FA0834204603B0BDE8F08FB46819
:10249000636823F003094D4504D8C5EB09030F2BEE
:1024A00000F3AE8048F6F02340F6600AC2F2000363
:1024B000C2F2000A1B68DAF800102B4401311DBF7C
:1024C00003F580530F3323F47F6303F1100C18BF1F
:1024D00023F00F0C04EB0902614638460192CDF857
:1024E00000C000F099FAB0F1FF3F8046019ADDF894
:1024F00000C000F01D81824200F2178148F6F42BE3
:10250000C2F2000B4245DBF800306344CBF80030E8
:1025100000F05D81DAF8000040F66001013018BF7C
:10252000C2EB0802C2F2000116BF9B18C1F800807E
:10253000CBF8003018F007031FBFC3F10802904426
:10254000C3F5805303F1080A08EB0C0308BF4FF4EE
:10255000805AC3F30B03C3EB0A0A5146384600F016
:102560005BFA431C18BFC8EB0002DBF80030C6F86A
:10257000088015BF52444FF0000A42F001020122C8
:102580005344B44248F6F42AC8F80420CBF800308B
:10259000C2F2000A15D0B9F10F0F40F2F88061685D
:1025A000A9F10C0222F0070201F0010EA11805208A
:1025B00042EA0E0E0F2AC4F804E04860886000F278
:1025C000128148F6EC22C2F20002B46811688B4214
:1025D00088BF136048F6E822C2F2000211688B42FD
:1025E00088BF1360626822F003029542C5EB0203C4
:1025F00001D80F2B04DC384600F0F8F9002493E6EC
:10260000621943F0010345F0010565603846B26088
:10261000536000F0EBF90834204603B0BDE8F08FBA
:102620002244E3685068A16840F00105CB60384659
:102630009960556000F0DAF90834204603B0BDE82F
:10264000F08FBCF1140F9CBF0CF15B0C4FEA4C01F6
:102650007FF676AEBCF1540F00F28F804FEA153C46
:102660000CF16E0C4FEA4C016AE64B0A042B58D968
:10267000142B9CBF03F15B02500005D9542B00F2D0
:10268000BA800A0B6E32500006EB800040F25448CC
:1026900083688342C2F200087FD05A6822F00302A6
:1026A000914202D29B689842F7D1D9687268E16082
:1026B000A3608C60DC608BE6611942F0010645F096
:1026C00001056560384659611961C1F80CE0C1F82F
:1026D00008E04E608A50083400F088F924E609F1D9
:1026E000010919F0030F04F108047FF484AE28E017
:1026F00004F108036469A34208BF0CF1020C3FF423
:1027000039AE01E619441C464868DB6854F8082FC6
:1027100040F001054D603846D3609A6000F066F9DC
:1027200002E68A0938325000AEE7B4423FF4E6AE22
:10273000B468626822F0030257E7D8F80080984531
:102740006BD11CF0030FA8F108030CF1FF3CF4D18E
:10275000736823EA00037360400098423FF697AE27
:1027600000283FF494AE0342CC467FF440AE4000D4
:1027700003420CF1040CFAD039E6BCF5AA7F17D855
:102780004FEAD53C0CF1770C4FEA4C01D8E5012318
:10279000C8F804304446002227E791100120D8F8F9
:1027A000042000FA01F10A43C8F8042019467EE724
:1027B00040F254539C459DBF4FEA954C0CF17C0C64
:1027C0004FEA4C01FC2188BF4FF07E0CB8E5C2F304
:1027D0000B0100297FF49EAE0CEB0901B26841F0B9
:1027E00001015160EDE604F10801384603F00CF8F0
:1027F000DAF80030E5E6B3F5AA7F03D8CA0B7732E2
:10280000500041E740F2545293429DBF8A0C7C3203
:102810005000FC2088BF7E2236E773689CE700BF2B
:10282000844641EA000313F003036DD1403A41D3DB
:1028300051F8043B40F8043B51F8043B40F8043B9A
:1028400051F8043B40F8043B51F8043B40F8043B8A
:1028500051F8043B40F8043B51F8043B40F8043B7A
:1028600051F8043B40F8043B51F8043B40F8043B6A
:1028700051F8043B40F8043B51F8043B40F8043B5A
:1028800051F8043B40F8043B51F8043B40F8043B4A
:1028900051F8043B40F8043B51F8043B40F8043B3A
:1028A00051F8043B40F8043B51F8043B40F8043B2A
:1028B000403ABDD2303211D351F8043B40F8043BCA
:1028C00051F8043B40F8043B51F8043B40F8043B0A
:1028D00051F8043B40F8043B103AEDD20C3205D3DA
:1028E00051F8043B40F8043B043AF9D2043208D0D2
:1028F000D2071CBF11F8013B00F8013B01D30B8844
:1029000003806046704700BF082A13D38B078DD021
:1029100010F003038AD0C3F10403D21ADB071CBFF3
:1029200011F8013B00F8013B80D331F8023B20F85D
:10293000023B7BE7043AD9D3013A11F8013B00F896
:10294000013BF9D20B7803704B7843708B7883701E
:1029500060467047F0B4840743D0541E002A3ED02E
:10296000CDB2034603E0621E002C38D0144603F8B3
:10297000015B9A07F7D1032C2AD9CDB245EA052588
:102980000F2C45EA054515D9A4F110073F0903F1BD
:10299000100606EB07161A46156055609560D5605F
:1029A0001032B242F8D104F00F040137032C03EBCC
:1029B00007130DD91E462246043A032A46F8045B43
:1029C000FAD8221F22F003020432134404F0030455
:1029D0002CB1C9B21C4403F8011BA342FBD1F0BCCB
:1029E000704714460346C6E7704700BF704700BFF4
:1029F0000FB400B540F2504283B0C2F2000204AB03
:102A0000106853F8042B8168019300F0F1F903B0CA
:102A10005DF804EB04B0704738B548F61C34C2F2D8
:102A200000040023054608462360FDF77DFE431C95
:102A300000D038BD2368002BFBD02B6038BD00BF11
:102A40001F2938B50C46054620D8D0F8DC229AB1AB
:102A500052F8213083B1012B0CD0591C06D000252F
:102A6000204642F824509847284638BD1623036074
:102A7000012038BD002038BD284600F029F8224644
:102A800001462846BDE8384000F00EB81623036022
:102A90004FF0FF3038BD00BF40F25043C2F2000398
:102AA00001461868FFF7CCBF38B548F61C34C2F2AF
:102AB00000040023054608461146236004F020F96F
:102AC000431C00D038BD2368002BFBD02B6038BDE1
:102AD00004F004B910B50C46B1F90E1003F054FB24
:102AE0000028ABBF236DA3891B1823F48053ACBF10
:102AF0002365A38110BD00BF2DE9F0410C468989F3
:102B00001D46CB051646074606D5B4F90E10002221
:102B1000022302F059FFA18921F48051A181384696
:102B2000B4F90E1032462B46BDE8F04101F03EBC30
:102B300010B50C46B1F90E1002F046FFA389421CF5
:102B40000EBF23F4805343F480532065A38110BD4E
:102B5000B1F90E1001F0A4BC40EA010C1CF0070F03
:102B600023D1BDF1100DCDE90245CDE900676FF02D
:102B700000064FF0000700BFF0E80223F1E802452D
:102B8000A24282FA46FCA7FA86FC08BFBCF1000FFD
:102B900040F0D780AB4283FA46FCA7FA86FC08BF18
:102BA000BCF1000F40F0CA80E6E710F0030C21D022
:102BB00020F0030050F8042B5FEACC7C08D00FD241
:102BC00011F801CB5FFA92F3B3EB0C0C10D17BB18F
:102BD00011F801CB5FFAA2F3B3EB0C0C08D13BB1B7
:102BE00011F801CB5FFAB2F3B3EB0C0C00D10BB9C7
:102BF00060467047BDF1100DCDE90245CDE9006793
:102C00006FF000064FF0000711F0030C2DD110F00B
:102C1000040F0DD050F8042B51F8044BA24282FA55
:102C200046FCA7FA86FC08BFBCF1000F40F0898083
:102C300011F0040F9FD051F8045B00BFF0E80223AD
:102C4000AA4282FA46FCA7FA86FC08BFBCF1000F34
:102C500071D1F1E80245A34283FA46FCA7FA86FC4B
:102C600008BFBCF1000F63D1E8E721F00301BCF11C
:102C7000020F1ED03BDA51F8045B00BF50F8043B52
:102C80004FEA152583FA46FCA7FA86FCB7EB0C2F12
:102C900003EA162208BFAA424DD151F8045BBCF1E9
:102CA000000F82EA03034FEA056208BF93423CD15A
:102CB000E4E751F8045B00BF50F8043B4FEA1545C8
:102CC00083FA46FCA7FA86FCB7EB0C4F03EA1642E0
:102CD00008BFAA422FD151F8045BBCF1000F82EA71
:102CE00003034FEA054208BF93421ED1E4E751F8BF
:102CF000045B00BF50F8043B4FEA156583FA46FCBD
:102D0000A7FA86FCB7EB0C6F03EA166208BFAA426B
:102D100011D151F8045BBCF1000F82EA03034FEAC2
:102D2000052208BF934200D1E4E719BA12BA0AE0BB
:102D300019BA22BA07E011BA2ABA04E019BA2ABAB3
:102D400001E011BA22BA9CFA8CF0DDE90067DDE9F6
:102D500002451DF1100D38B1B0FA80F0C0F1180035
:102D600021FA00F122FA00F20120914298BF80413D
:102D7000704700BF20F0030110F00300C0F1000015
:102D800051F8043B00F1040C4FEACC0C6FF0000248
:102D90001CBF22FA0CF213434FF0010C4CEA0C2C2E
:102DA0004CEA0C4CA3EB0C0222EA030212EACC120E
:102DB00004BF51F8043B0430F4D013F0FF0F1FBFE1
:102DC000013013F47F4F013013F47F0F18BF01302F
:102DD000704700BF30B440F25044C2F200040D46C8
:102DE000134601462A46206830BC01F0DFBA00BF16
:102DF0002DE9F04FC3B01C46894606920A9002F0B6
:102E0000DDFD00681490FFF7B5FF0A9D17900E9442
:102E10001DB1AB6B002B00F01D81B9F80C309AB2DC
:102E200090040AD4D9F8642043F4005322F40051EA
:102E3000A9F80C309AB2C9F86410110740F1D1809A
:102E4000D9F81030002B00F0CC8002F01A020A2AC8
:102E500000F0D3800DF1C705039532ADAC46259542
:102E6000039DCDF81C9032AC0494C5EB0C0447F6DE
:102E70009C5B1B9447F6EC5547F6F0540023C0F6D4
:102E80000004C0F6000BC0F600050C9327932693B0
:102E900016931893159319930F93119412956646F0
:102EA0005F46069C2378252B18BF002B00F0D680A8
:102EB000621C144601322378252B18BF002BF8D151
:102EC0000698251A0FD0269B279A306001332A4492
:102ED000072B756027922693D8BF083600F3A08091
:102EE0000F9929440F912378002B01F04A80002389
:102EF000651C94F801908DF877304FF0FF341A4636
:102F00000D930593069508942B460133A9F12001F2
:102F1000582900F22884DFE811F0CF0326042604A4
:102F20001E0426042604260426042604260475030B
:102F3000CB0326045D00500226048F0296029602FF
:102F4000960296029602960296029602960226042F
:102F50002604260426042604260426042604260421
:102F600026047102AE022604AE02260426042604BC
:102F70002604A70226042604ED02260426042604BD
:102F80002604260408032604260420032604260417
:102F900026042604260426042604260426042604E1
:102FA00047035D03AE02AE02AE02EE035D032604EC
:102FB0002604F50326040A043F02D60382032604EE
:102FC00089032604A30026042604B1030D9C0E9158
:102FD00064420D94059D45F00405059593F8009015
:102FE00093E70A98494601F0F7F9A0B9B9F80C201F
:102FF00002F01A020A2A7FF42DAFB9F90E30002B25
:10300000FFF628AF0A98069A4946234601F092F93E
:1030100043B0BDE8F08F4FF0FF3043B0BDE8F08F14
:103020000A98079925AA03F02DF948B932AE57E757
:103030000A98079925AA03F025F9002800F08C8149
:10304000DDF81C90B9F80C305B06E4D40F9843B05F
:10305000BDE8F08F2846FFF783F8DEE6069C42E7DE
:10306000059C0693A30640F169820E9DEB1D23F09B
:10307000070303F108040E94D3E9004501234FF040
:10308000000A8DF877A0089A002AA2BF059820F0C0
:103090008000059054EA050108980CBF0022012227
:1030A000002818BF42F00102002A00F0E283012B41
:1030B00000F00585022B0DF1C70240F051811598F3
:1030C00004F00F012309904643EA0573425C290985
:1030D0001C460D4654EA050188F8002008F1FF322D
:1030E000EED1049BC8EB03030B93089C0B9DA542F8
:1030F000B8BF2546002409951394BAF1000F02D0F9
:10310000099C01340994059D15F0020B18BF099C18
:10311000059D1CBF0234099415F08405109540F0FC
:1031200037830D9D09982C1A002C40F33183102C05
:1031300047F6F05A40F3A78730461A972799269A00
:10314000119E2746C0F6000A10250A9C02E0103F97
:10315000102F17DD01321031072A066045602791D4
:103160002692D8BF0830F2DD2046079925AA03F041
:1031700089F800287FF464AF103F102F2799269A12
:1031800032A8E7DC3C461A9F064601322144072A52
:1031900027912692C6F800A0746000F39E849DF8E3
:1031A00077A008360C46BAF1000F0ED0269B0133EB
:1031B00001340DF177010122072B86E806002794E0
:1031C0002693D8BF083600F3E582BBF1000F0DD07F
:1031D000269B013302341EA90222072B86E8060033
:1031E00027942693D8BF083600F30684109B802BC3
:1031F00000F05283089D0B9BC3EB050ABAF1000F48
:1032000044DDBAF1100F47F69C55DCBFC0F600054F
:10321000269B27DDC0F600052246269B54464FF02C
:10322000100BAA460A9D02E0103C102C17DD01335A
:103230001032072B86E8800827922693D8BF0836DD
:10324000F2DD2846079925AA03F01CF800287FF430
:10325000F7AE103C102C279A269B32AEE7DC554681
:10326000A246144601335444072B86E820042794D1
:103270002693D8BF083609DD0A98079925AA03F0D6
:1032800001F800287FF4DCAE279C32AE059DEA05EC
:1032900000F18B82269B0B9DC6F8008001332C44E5
:1032A000072B27947560269300F396830836059DB7
:1032B0006A0746D50D980999451A002D41DD102D54
:1032C00047F6F05ADCBFC0F6000A269B27DD0597BB
:1032D000269BDDF82890DDF81CB0119FC0F6000A8F
:1032E0004FF0100802E0103D102D17DD01331034AF
:1032F000072B86E8800127942693D8BF0836F2DD95
:103300004846594625AA02F0BDFF002840F04384F4
:10331000103D102D279C269B32AEE7DC059F013324
:103320002C44072B27942693C6F800A0756008DD6F
:103330000A98079925AA02F0A5FF00287FF480AE1D
:10334000279C0F9D09990D988142ACBF6D182D18CF
:103350000F95002C7FF46CAE0023269332AEA0E5CF
:10336000E308904643EA4573EA0804F0070115466E
:103370001C4601F1300354EA050188F8003008F1D9
:10338000FF32EDD1059CE007414600F1E884049D41
:10339000C8EB05050B95A8E6059D069315F02003DF
:1033A00000F0B2800E9CE31D23F0070303F1080533
:1033B0000E95D3E90045002361E693F80090B9F13A
:1033C0002A0F03F1010000F08487A9F130010929D7
:1033D00082BF0024034608943FF698AD002310F8FE
:1033E000019B03EB830301EB4303A9F1300109299E
:1033F000F5D943EAE3730893034687E5059D8DF805
:10340000772045F010050595059C0693A20640F12E
:10341000E8800E9DE91D21F00701D1E90023083164
:103420000E9114461D46002A73F10001C0F2A384D8
:103430009DF877A0012326E6059C44F080040594BE
:1034400093F8009061E50025A9F130010D9528461B
:1034500013F8019B00EB800001EB4000A9F1300163
:103460000929F5D90D9051E5059C44F0080405940F
:1034700093F8009049E5059C069324078DF8772082
:1034800040F10F850E9DEB1D23F0070303F10804A7
:103490001D680E9416955B681893169A189B43EC5A
:1034A000102B02F087FE012840F06F8416981899BF
:1034B0000022002304F05AF8002840F018869DF8F6
:1034C00077A003250995059D002425F0800547F682
:1034D000B05847F6AC53C0F60008C0F60003089495
:1034E000059503240025B9F1470FD8BF98460B94E2
:1034F000139502E6059C069344F010040594059D7F
:1035000015F020037FF44EAF059C14F0100240F03C
:103510002A83059C14F0400300F025830E9804884C
:103520000430134600250E90A9E5059D069345F04D
:1035300010050595059CA3063FF597AD059DED0685
:1035400000F11883059C640640F114830E980488EA
:103550000430002501230E9091E5059D069347F662
:10356000BC54C0F60004A8068DF87720159440F1ED
:1035700091800E9CE31D23F0070303F108050E95CF
:10358000D3E900450598C30740F1428254EA05019A
:1035900000F03E82302340F002008DF878308DF844
:1035A0007990059002236AE506930E9B0E9C1B689A
:1035B0004FF0000A012504348DF877A009958DF8A5
:1035C000A0300E94CDF820A0CDF84CA00B950DF1B5
:1035D000A00898E5059C8DF87720A20606933FF594
:1035E00018AF059CE30600F1CD82059C650640F10D
:1035F000C9820E98B0F900400430E51722462B46E8
:103600000E9010E70E9C0E9D2468002C0D9405F181
:103610000401FFF6DBAC0E9193F8009075E4059C75
:1036200044F02004059493F800906EE40E9C0693F9
:10363000D4F8008000258DF877500434B8F1000FDD
:1036400000F04085089800284046C0F20E852946C3
:10365000089A02F041FA002800F08B8508990E9430
:10366000C8EB00008842B8BF014621EAE1740B9123
:103670000895099413959DF877A03EE5059D06935E
:1036800047F6D054C0F60004A8068DF877201594AC
:103690003FF56FAF059CE10600F15F82059C620675
:1036A00040F15B820E980488043000250E9069E793
:1036B00093F800902B2228E493F80090002A7FF4DE
:1036C00024AC202221E4059D0E9A069345F00205C4
:1036D00047F6D05030234FF078090595C0F600002A
:1036E000151D8DF878300E9514688DF879900025A9
:1036F00015900223C3E4059D45F04005059593F818
:10370000009002E493F80090B9F16C0F0CBF059C97
:10371000059D194609BF44F0200445F0100501330A
:1037200005940CBF91F801900595FFF7EEBB059D40
:103730000693A9068DF8772040F1C0830E9C21687E
:103740000F9CE5172B460E9D224604350E95C1E9C8
:103750000023FFF7A6BB059D45F00105059593F8ED
:103760000090FFF7D2BB06938DF87720B9F1000FD8
:1037700000F00784002301259A4609958DF8A09052
:103780008DF87730089313930B950DF1A008BAE4E8
:10379000279C08E50A98079925AA02F073FD0028DE
:1037A0007FF44EAC279C32AE0FE5B9F1650F40F3C4
:1037B000C280169818990022002303F0CDFE00283D
:1037C00000F02981269B129D013301340122072B31
:1037D0003560726027942693D8BF083600F379834A
:1037E0001F9B0C9DAB4203DB059DEB077FF55FAD97
:1037F000149D269B3560179D01332C44072B756063
:1038000027942693D8BF083600F3FE830C9D05F15C
:10381000FF38B8F1000F7FF74AADB8F1100F47F647
:103820009C5540F33A85269BDDF828A0DDF81CB0B6
:10383000C0F600054FF0100905E0A8F11008B8F136
:10384000100F40F3C08001331034072B86E880024C
:1038500027942693D8BF0836EFDD5046594625AA4F
:1038600002F010FD002840F09681279C269B32AE86
:10387000E3E7002B40F0BB80059CE1075CBF0B93A6
:103880000DF1C8087FF531AC1B9D30238DF8C73092
:103890000B950DF1C70828E40D9D0998C0EB050AAA
:1038A000BAF1000F7FF7A6ACBAF1100F47F69C559E
:1038B000DCBFC0F60005269B27DDC0F600052246CA
:1038C000269B54464FF0100BAA460A9D02E0103C7E
:1038D000102C17DD01331032072B86E88008279261
:1038E0002693D8BF0836F2DD2846079925AA02F0AC
:1038F000C9FC00287FF4A4AB103C102C279A269B0F
:1039000032AEE7DC5546A246144601335444072B39
:1039100086E8200427942693D8BF08367FF76AAC40
:103920000A98079925AA02F0ADFC00287FF488AB1D
:10393000279C32AE5EE40C9D012D40F3B181269BA5
:10394000C6F800800133621C0121072B71602792A9
:103950002693D8BF083600F3CE81179C149D2244CD
:1039600035605C1C179D2792072C2694756000F328
:10397000CE8108369146169818990022002303F04C
:10398000EBFD0C9D002840F0B6806B1E013408F161
:10399000010103EB0902072C316026942792736022
:1039A00000F39C8108369146199A631C199C269352
:1039B0004A4421A9072B279286E812000CDC08361E
:1039C000144674E4144601334444072B2794269389
:1039D00086E820017FF76AAC0A98079925AA02F0C9
:1039E00051FC00287FF42CAB279C32AE5FE40B9295
:1039F0000DF1C808FFF779BB0A98079925AA02F0CC
:103A000041FC00287FF41CAB279C32AEFFF7EEBBD5
:103A10000223FFF734BB1F9B002B40F365820C9DF4
:103A20001398DDF830B08542A8BF0546002DC34489
:103A30000CDD269BC6F8008001332C44072B7560F3
:103A400027942693D8BF083600F32383139925EAD9
:103A5000E575C5EB0109B9F1000F40F3B580B9F187
:103A6000100F47F69C55DCBFC0F60005269B40F3BF
:103A70009780C0F6000522460895269B0A9C079D64
:103A80004FF0100A05E0A9F11009B9F1100F40F349
:103A9000858001331032072B86E880042792269315
:103AA000D8BF0836EFDD2046294625AA02F0EAFBFA
:103AB000002840F07382279A269B32AEE3E7002D60
:103AC00008BF0A2C80F030811B9D30348DF8C74030
:103AD0000B950DF1C708FFF708BB0A98079925AAAF
:103AE00002F0D0FB00287FF4ABAA9DF877A0279CBA
:103AF00032AEFFF758BB05F1FF38B8F1000F7FF782
:103B000053AF47F69C55B8F1100FC0F6000540F3CF
:103B1000DC804B464FF0100AA946DDF828B0079D1F
:103B200005E0A8F11008B8F1100F40F3CC80013483
:103B30001033072C86E8800427932694D8BF0836D4
:103B4000EFDD5846294625AA02F09CFB002840F0EC
:103B50002582279B269C32AEE3E70E9D2C68043518
:103B60000E9500250EE50E9D2C6804350E9500255A
:103B7000FFF785BA0E9D2C6804350E9501230025AC
:103B8000FFF77DBA0E9D0E982C680430E5170E9055
:103B900022462B4647E4D946FFF754BA089D1446FF
:103BA00001334C44072B86E8200227942693D8BF84
:103BB000083609DD0A98079925AA02F063FB002858
:103BC0007FF43EAA279C32AE139D1F9BA8440C9DF8
:103BD000AB424CDB059DE80749D40C98C8EB0B05BC
:103BE000C31AAB42B8BF1D46002D0CDD269AC6F89D
:103BF000008001322C44072A756027942692D8BF92
:103C0000083600F3518225EAE575C5EB0308B8F1E3
:103C1000000F7FF74CABB8F1100F47F69C5540F3FF
:103C20003C83269BDDF828A0DDF81CB0C0F600051B
:103C30004FF01009224605E0A8F11008B8F1100F66
:103C40007FF7C0AE01331032072B86E8800227923F
:103C50002693D8BF0836EFDD5046594625AA02F014
:103C600011FB002897D1279A269B32AEE4E7149DDA
:103C7000269A3560179D01322C44072A75602794D7
:103C80002692D8BF0836A8DD0A98079925AA02F01F
:103C9000F9FA00287FF4D4A91F9B279C32AE9CE739
:103CA000059DE9073FF54BAE269AC6F80080631CD8
:103CB000541C072C4FF001022793269472600DDCF0
:103CC0000836994670E64D469946013408EB0903DB
:103CD000072C2793269486E82001F1DD0A9807999E
:103CE00025AA02F0CFFA00287FF4AAA9DDF89C905B
:103CF000269C32AE58E60A98079925AA02F0C2FA25
:103D000000287FF49DA9279A269B32AE25E60A98C3
:103D1000079925AA02F0B6FA00287FF491A9DDF8E8
:103D20009C90269C32AE26E60DF1C70B2046294614
:103D30000A22002303F06AFC30328BF80020204670
:103D400029460A22002303F061FC04460D4654EA8A
:103D50000500D8460BF1FF3BE8D1FFF7C2B9302B85
:103D60003FF4BFA9049C3023A41A90460B9401F899
:103D7000013CFFF7BAB94FF02D0A644265EB4505E7
:103D80008DF877A00123FFF77EB9169A189B43ECB4
:103D9000102B02F00FFA002800F01181089C01346A
:103DA00008BF062429F0200508BF089406D0472D37
:103DB00004D1089C002C08BF01240894189B059C82
:103DC000002B44F480741094BDBF1C4604F1004ADB
:103DD0004FF02D0BDDF860A0A8BF4FF0000BB5F140
:103DE0004600D0F1000C5CEB000CBCF1000F40F081
:103DF0008F81452D40F0FF810898169A441C534648
:103E000020A823A943EC102B8DE8030022460A9832
:103E100002211FAB00F0F0FB8046044400231698FB
:103E20005146002203F098FB234648B9239B9C424D
:103E300006D930215A1C23921970239B9C42F9D831
:103E4000C8EB0303472D0C9300F08B81B9F1650F8C
:103E500040F36A82B9F1660F00F0DD811F9D139572
:103E6000139C0C9DAC42C0F2C881059CE00749BF81
:103E7000139B139D01330B935ABF25EAE5730B95F2
:103E800023EAE3734FF06709BBF1000F40F035817F
:103E9000109C09930594CDF820B09DF877A0FFF70A
:103EA0002CB90E9CE31D23F0070303F108051C68E1
:103EB0000E9516945B681893FFF7EFBA059CE2061F
:103EC0006FD50E9D0F9C2B6804350E951C60FEF778
:103ED000E8BF0A98079925AA02F0D4F900287FF4D0
:103EE000AFA8279C32AE7BE4269A129D01320134A2
:103EF0000121072A356027942692716078DC083604
:103F0000184628B90C9D1DB9059DED077FF5CFA971
:103F1000269B1799149D21440133179C3560072B6C
:103F2000279174602693D8BF06F1080200F35681EA
:103F30004442002C40F3898047F69C55102CC0F673
:103F400000056DDD1026DDF82890DDF81CA002E0EC
:103F5000103C102C64DD01331031072B17605660C4
:103F600027912693D8BF0832F2DD4846514625AA4C
:103F700002F088F9002840F05D812799269B32AA3B
:103F8000E6E7279BDDF81C90002B3FF45BA80A981E
:103F9000494625AA02F076F9FFF754B8A946FFF77B
:103FA00051B80E9C059D236815F0400F0F9D04F13C
:103FB00004040E9414BF1D801D60FEF772BF059DA2
:103FC000089047F6B85847F6B4530324C0F60008E3
:103FD000C0F6000325F0800509940595B9F1470F57
:103FE000D8BF984613900B949DF877A0FFF785B83B
:103FF0000A98079925AA02F045F900287FF420A81D
:104000001F98279C32AE7CE70A98079925AA02F0F0
:1040100039F900287FF414A8279C32AEFFF7F6BBCD
:1040200001332144072B1560546027912693D8BF94
:1040300008320ADD0A98079925AA02F023F9002818
:104040007EF4FEAF2799269B32AA0C9DC2F8008011
:1040500001332944072B2791269355603FF7BCACC9
:1040600002F108060C46FFF722B90895FEF782FE1A
:104070000E94089C0B9020EAE075099513949DF826
:1040800077A0FFF73AB8C0F6000A2799269AFFF7FB
:104090007CB80A98079925AA02F0F4F800287EF463
:1040A000CFAF279C32AED1E40A98079925AA02F037
:1040B000E9F800287EF4C4AF1F9B0C99279CCB1A0B
:1040C00032AEA0E5089D0E94062D28BF0625C246F7
:1040D0000B9547F6E45825EAE575CDF820A054463F
:1040E000CDF84CA00995C0F60008FFF706B84FF0D0
:1040F0002D0A8DF877A0FFF7E4B9109D09934FF0D2
:104100002D0A002405958DF877A00894FEF7F8BFD6
:104110000321169ACDF808C0534623A820AC43ECDF
:10412000102B019000940A98089A1FAB00F064FAD3
:10413000472D8046DDF808C002D1059CE1070DD56A
:10414000089C4444BCF1000F3FF468AE98F800307E
:10415000302B00F0AF801F9B1C445FE6239B1B1A93
:104160000C931F9BDA1C11DB089C9C420EDB139303
:1041700076E6089D0E9425EAE5750995089D13904D
:104180000B9508909DF877A0FEF7B7BFA9F102093B
:10419000013B002B1F93BABF5B422D222B22092B20
:1041A0008DF884908DF8852047DC303330228DF8EF
:1041B00087308DF8862022AB21AA0C9C0C9D9A1A80
:1041C0001444012D19920B9440F3A4800B9B0024FE
:1041D00001330B93139423EAE37355E60A98079986
:1041E00025AA02F04FF800287EF42AAF1F982799DD
:1041F000269B32AA9CE602218BE7139C0C9D002C87
:10420000D4BFC4F1020301231D440B9525EAE573D5
:104210004FF0670938E61F9C002C13946BDD089D56
:10422000002D3FD1059CE5073CD4139D25EAE5739D
:104230000B9529E6D146FEF705BF46F26760C6F248
:1042400066600DF1920180FB0354DA17C2EBA40201
:1042500002EB82040D46A3EB440303F13001092A6B
:104260002970134605F1FF31EDDC02F130030DF149
:104270009300DAB2884205F8012C57D90DF1850177
:104280002B4601E013F8012B834201F8012FF9D1ED
:1042900042A8C5EB4003F63B8EE7C0F60005269B1F
:1042A000FFF791BB089C139D631C1D440B9525EAE9
:1042B000E573E9E5169851460022002303F04CF916
:1042C00000287FF448AF0898C0F101031F931C44F5
:1042D000A4E50E9D0E9C2D6893F801900895002D85
:1042E00004F10401B8BF4FF0FF350E910346B8BF8B
:1042F0000895FEF70ABE089C34B9059DEC075CBF23
:1043000001230B937FF5C0AD089B02330B9323EA87
:10431000E373B9E5059C14F001037FF457AF0B9DDF
:10432000139325EAE573AFE51F9B31E70DF1860393
:1043300042E700BF2DE9F0430C46ADF26C4DE76952
:10434000B1F80C90496EB4F80E800797676A19911E
:104350001AAD4FF480664FF0000E29F0020969464D
:104360000095049502960596ADF80C90ADF80E8078
:104370000997CDF818E00646FEF73AFD051E07DB63
:104380003046694601F0D8F9002818BF4FF0FF35D4
:10439000BDF80C305E0648BFA389284644BF43F0F1
:1043A0004003A3810DF26C4DBDE8F08370B548F673
:1043B0001C34C2F2000406460025084611461A467F
:1043C0002560FCF779F9431C00D070BD2368002BF1
:1043D000FBD0336070BD00BF38B540F25043C2F22D
:1043E0000003054618680C4610B1826B002A36D0CF
:1043F000A28993B218070CD52169A9B113F0010263
:104400001ED0636900225B42A361A260F1B100206B
:1044100038BDD9063BD55B0724D4216942F0080397
:10442000A3819BB20029E9D103F42072B2F5007F89
:10443000E4D02146284601F0DDFAA3892169DDE7B1
:10444000980758BF6269A2600029E0D1A3891A06C3
:10445000DDD543F04003A3814FF0FF3038BDFDF7B9
:104460007FFEC5E7216B49B104F14003994203D0B7
:10447000284601F0C9F9A2890023236322F024020F
:10448000216912040023120C84E80A00C6E742F0F6
:10449000400209232B604FF0FF30A28138BD00BFDE
:1044A00038B548F61C34C2F200040023054608461D
:1044B0002360FCF72FF9431C00D038BD2368002B84
:1044C000FBD02B6038BD00BF2DE9F04F03690D69AB
:1044D0009D42834683B0C8BF002000F38880013D21
:1044E00001F114040BF1140A54F825205AF8253070
:1044F0000132B3FBF2F8AA00914600925244A14463
:104500000192B8F1000F3DD04FF0000E70462246E8
:1045100053468C4652F8046B1968B7B2360C07FB49
:1045200008EE06FB08F606EB1E461FFA8EF7C71BC1
:10453000B0B217FA81F7C0EB114000EB2740BFB2D1
:1045400047EA0047914543F8047B4FEA20404FEA91
:10455000164EDFD2009A5AF80230614693B9019A9A
:10456000131F9A450CD252F8043C4BB9A2F1080330
:1045700002E01A68043B1AB99A4505F1FF35F8D3F1
:10458000CBF81050584601F019FD00282EDB08F139
:1045900001085346002254F8046B1868B1B2521A4D
:1045A000360C12FA80F1C6EB104202EB214289B2BE
:1045B00041EA0241A14543F8041B4FEA2242EAD2F4
:1045C0005AF825200AEB850382B91A1F92450BD2AF
:1045D00053F8042C42B9083B02E01A68043B1AB9AC
:1045E0009A4505F1FF35F8D3CBF81050404603B09B
:1045F000BDE8F08F000000002DE9F04F9BB00446AD
:104600000291016C249D059206935BEC10AB41B1C5
:10461000436C01229A404B608A6001F0CBFA002380
:104620002364BBF1000FB5BF012300232B602B6077
:104630004FF00003B4BF2BF00049D946C7F6F07322
:104640004FF0000209EA0303C7F6F072B8BFCB4689
:10465000934216D0002200235046594602F07CFFB8
:1046600056465F46804628B3069E259D012333604B
:10467000002D00F0DB80A848286001381BB0BDE8A1
:10468000F08F069D42F20F7347F60C602B60C0F668
:104690000000BAF1000F00F0A980259E002EEDD099
:1046A000C378002B40F0B180C31C259D2B601BB04C
:1046B000BDE8F08F204647EC106B19A918AA01F04D
:1046C00009FD5FEA19550B9040F0A280189F199DD3
:1046D0006FF482633D449D42C0F25C824FF60E430C
:1046E000CFF6FF735B1B05F2124209FA03F32AFAB5
:1046F00002F243EA020002F051FC0126013DB846F5
:10470000A1F1F871159600230022C3F6F87302F0A8
:1047100007FB7BA3D3E9002302F0B6FC7AA3D3E91D
:10472000002302F0FFFA064628460F4602F046FC38
:1047300077A3D3E9002302F0A7FC02460B463046DC
:10474000394602F0EFFA06460F4602F037FF3946C7
:10475000049000223046002302F008FF002840F0B9
:104760000282049E162E84BF0126149612D847F6A4
:104770002063C0F6000303EBC603D3E900015246F1
:104780005B4602F011FF002800F00C82013E049607
:1047900000261496C5EB0805013D48BF0026089584
:1047A00048BF0896049E4BBF6D4200250A950A95A6
:1047B000002EC0F2E681089D0F963544002608952C
:1047C0000C96029D092D36D8052DC4BF043D0295D7
:1047D000029EA6F10203CCBF00250125032B2CD895
:1047E000DFE813F04203100250036C0547F6006245
:1047F00047F60C63C9F31300C0F60002C0F60003CD
:1048000000280CBF1046184647E700F108034CE7A4
:10481000CBF3130343F07F53CDF854805046A5F2F9
:10482000FF3543F44011DDF860806CE747F6EC504B
:10483000C0F6000022E7002602960025656429469E
:10484000204601F091F94FF0FF36059501250790BC
:104850000E96206409960D95199B002BC0F2BB8023
:10486000049E0E2E00F3B78047F62063C0F60003C7
:1048700003EBC603059D099E93ED007BEA0F002E16
:10488000CCBF002202F001028DED027B002A40F035
:104890004C8453EC172B5046594602F01FFD02F092
:1048A0008DFE804602F08AFBDDE9022302F0ECFB7C
:1048B0000B4602465946504602F032FA079D08F16F
:1048C00030032B70099B012B06460F4605F10105AD
:1048D00054D000230022C4F2240302F0D5FB0022AE
:1048E000002306460F4602F037FEDDF81C90002834
:1048F00040F0FE84099DA944079D05F1020A18E0D5
:1049000061436F63A787D23FB3C8608B288AC63FD5
:10491000FB799F501344D33FED7D000802F0B4FBB8
:104920000022002306460F4602F016FE002840F043
:10493000DD84DDE902233046394602F0CFFC02F087
:104940003DFE804602F03AFBDDE9022302F09CFBCB
:1049500002460B463046394602F0E2F908F13005CE
:104960000023CA450AF8015C064655460F464FF03B
:104970000002C4F224030AF1010ACFD132463B46B9
:104980003046394602F0CEF906460F463246DDE99A
:1049900002013B4602F0EAFD002800F06085DDF8E8
:1049A0001C90049E15F8018C169607952A4605E082
:1049B000994500F0CF8413F8018C1A46B8F1390FED
:1049C00002F1FF33F4D00792169E08F10102D2B231
:1049D00004961A70B1E00D9D002D40F0E5800C9E0C
:1049E0000A9DDDF8348008990029C8BF002D09DD33
:1049F0000B460A9AAB42A8BF2B46D21AC91A0A9292
:104A0000ED1A08910C9B002B1ADD0D99002900F07E
:104A10006584002E10DD41463246204601F020FA22
:104A2000804641460B9A204601F070F90B990746E3
:104A3000204601F0BFF80B970C9B9A1B40F0958421
:104A40000121204601F058F90F990029064605DD9D
:104A500001460F9A204601F003FA0646029A012AFF
:104A600040F3798300270F990120002940F0338318
:104A7000089B034413F01F0300F08682C3F1200259
:104A8000042A40F35B850A9ADDF820E0C3F11C0399
:104A90001A449E440A921D44CDF820E00A9B002B44
:104AA00005DD0B991A46204601F02AFA0B90089969
:104AB000002905DD3146089A204601F021FA064614
:104AC000149A002A40F01083029A0999022AD4BF4E
:104AD000002301230029C8BF0023002B00F00A8215
:104AE000099D002D40F0FF8131462B4605222046CE
:104AF00001F06AF8064631460B9801F05FFA00288B
:104B000040F3F181049D01350495079DA9463123A9
:104B100009F101012B70079100253146204601F073
:104B200049F8B8F1000F08D0454518BF002D40F0F6
:104B300039824146204601F03DF820460B9901F0AC
:104B400039F8049E079D0022731C2A70069E259D3D
:104B500033604846002D3FF491AD079E48462E60D5
:104B60001BB0BDE8F08F049802F028FA32463B46AD
:104B700002F0F2FC00287FF4F4AD049E013E04969E
:104B8000EFE5049E0A9DAD1B0A95754200260C9523
:104B90000F9616E64FF6EE30CFF6FF70401B0AFA7E
:104BA00000F0A8E51490F5E5029E012E40F30F8475
:104BB000099D6E1E0C9DB542BFBF0C9D0C96C5EBAA
:104BC00006030F9DB6BFED18C6EB05060F95099DB0
:104BD000B8BF0026002DB3BFDDF828E00A9D099B71
:104BE000C5EB0E05B8BF00230A9ADDF820E01A4491
:104BF0009E44204601210A92CDF820E001F07CF885
:104C00008046F0E600260D96059EDDF810E076441D
:104C10000E960136002E099640F35383099E0E2E00
:104C20008CBF002505F001050021172E61640AD90B
:104C3000012204235B0003F11400B042114602F18B
:104C40000102F7D96164204600F08EFF07902064CE
:104C5000002D3FF401AE049D002DCDE912AB40F3D1
:104C6000AA8147F6206305F00F02C0F6000303EBAC
:104C7000C2032D11D3E90067EB0640F18E8147F6A0
:104C8000E863C0F6000350465946D3E9082302F012
:104C900025FB05F00F0582468B464FF003089DB1BA
:104CA00047F6E869C0F6000930463946EF0705D5F2
:104CB000D9E9002302F0E8F908F101086D1009F1C3
:104CC0000809F3D106460F4632463B465046594640
:104CD00002F004FB06460F46149D55B100233046F2
:104CE00039460022C3F6F07302F040FC002840F081
:104CF0000683404602F062F932463B4602F0C4F9B0
:104D000000230022C4F21C0302F00CF8099D804627
:104D1000A1F15079002D00F0CA80049DDDF824C077
:104D200016950D9D47F62063C0F60003002D00F098
:104D30006F8103EBCC03002153E902230020C3F66B
:104D4000E071CDF804C002F0C9FA42464B4601F0CA
:104D5000E7FF82468B463046394602F02FFC054677
:104D600002F02CF902460B463046394601F0D8FFD6
:104D700030355FFA85F8079D06460F4685F80080B6
:104D800050460135594632463B46009502F00CFC30
:104D9000002862D1002132463B460020C3F6F07164
:104DA00001F0BEFF02460B465046594602F0FCFB9E
:104DB000DDF804C0002840F0B683BCF1010F40F3D9
:104DC000F780DDF81C901794E144CDF84090DDF8B1
:104DD000009010E000210020C3F6F07101F0A0FF68
:104DE00052465B4602F0C2FB002840F01C83109D37
:104DF000A94500F0DC800023504659460022C4F249
:104E0000240302F041F900230022C4F22403824665
:104E10008B463046394602F037F90D46044602F01B
:104E2000CDFB804602F0CAF802460B4620462946D2
:104E300001F076FF08F130085FFA88F852465B46C9
:104E400009F8018B06460F4602F090FB32463B46BE
:104E50000028BFD0179CCDF80090169D009EDDF86D
:104E60001C900495079668E600260D96059E002E78
:104E700040F32F820E2E8CBF002505F001050E9603
:104E80000996D1E601260D96F0E7404602F096F825
:104E900002460B463046394602F0F6F8002300225F
:104EA000C4F21C0301F03EFF8046A1F150790023BB
:104EB00030460022C4F21403394601F031FF424665
:104EC0004B4682468B4602F06FFB0646002840F0B8
:104ED000FF80424609F100435046594602F046FB26
:104EE000002865D0B046059DDDF81C90ED43049583
:104EF000002512E60D9A002A40F05F810025DDF8BA
:104F000024A0DDF82C90DDF81CB006E049462046D0
:104F10000A22002300F058FE814648463146FFF73A
:104F2000D3FA30300BF8050001355545EEDB099D0D
:104F3000DDF81CB0CDF82C90012DACBFAB440BF1CB
:104F4000010B074600250B990122204600F0D8FFEF
:104F500031460B9001F032F8002840F36E821BF8C6
:104F6000012C079905E0994200F0238213F8012CE7
:104F70009B46392A0BF1FF33F5D00132DDF81C9046
:104F80001A70CDF81CB0C8E51C230A99089A194478
:104F90001A440A911D44089280E5DDE912AB4FF0F6
:104FA00002087CE62946204600F004FEC1E5179C75
:104FB000DDE912AB50E4049E7542002D00F09A81A9
:104FC00047F6206305F00F02C0F6000303EBC203AF
:104FD000D3E90023DDE9120102F056F82D1106464F
:104FE0000F4600F09C8247F6E869C0F600094FF0D2
:104FF0000208EE0705D5D9E9002302F045F808F1CB
:1050000001086D1009F10809F3D106460F4663E661
:105010000CF1FF3B03EBCB0142464B46D1E90001CB
:10502000CDF804C002F030F8CDE910013946304621
:1050300002F0C4FA054601F0C1FF02460B463046B5
:10504000394601F06DFEDDF81CE030358EF8005079
:10505000DDF804C0BCF1010F06460F460EF1010A4F
:105060001FD0079D05F1FF39E14400230022C4F25F
:10507000240302F009F80F46064602F09FFA804624
:1050800001F09CFF08F1300802460B4630463946D5
:1050900001F046FE05F8018F4D45E6D106460F4664
:1050A000DA4400230022C3F6E073DDE9100101F0C9
:1050B00039FE32463B4602F059FA002800F05C8186
:1050C000DDF81C901AF8018CCDF81CA0524675E44E
:1050D0000026B04616E5336906EB8303186900F035
:1050E000BFFDC0F12000C3E40B98314600F066FF1D
:1050F0000028BFF6E9ACDDF810E00B990EF1FF3E99
:1051000020460A220023CDF810E000F05DFD0D9945
:105110000B9000293BD10E9D002D03DC029D022D3A
:1051200000F308820E9D0995E8E6099D002D40F0E8
:10513000948100230022C4F21403DDE9020101F08E
:10514000A3FF52465B4602F025FA099EB0460028AE
:105150007FF4C9AED6E4BAF1000F7FF483ACCBF391
:1051600013035746002B7FF47EAC2BF000473F0D16
:105170003F05002F3FF477AC0A9BDDF820E00133B8
:105180000EF1010E0A93CDF820E001276BE4002315
:1051900041460A22204600F017FD0E9ADDF808E08D
:1051A000002ACCBF00230123BEF1020FD8BF002389
:1051B0008046002B40F0BE810992002D05DD41465E
:1051C0002A46204600F09CFE8046C446002F40F050
:1051D0005781099DDDF81CE00799AE440AF00105EE
:1051E00009953746CDF828E04D1CE1460B9E0AE0B4
:1051F00000F0EAFC494680460A222046002300F0DF
:10520000E3FC8146013539463046FFF75DF94146FA
:105210008246304600F0D2FE4A4683463946204652
:1052200000F0EEFE0AF130020592C26805F1FF3E81
:105230000346CDF820E0002A3ED1194630460193BE
:1052400000F0BCFE019B024619462046019200F088
:10525000B1FC019A0299114303D1099B002B00F084
:105260004D81BBF1000FC0F2BA80029B5BEA0303E1
:1052700003D10999002900F0B280002A00F31D81B2
:105280000A9B059A9D4205F8012CAB4600F0278148
:1052900031460A220023204600F096FCC845064607
:1052A000414620464FF00A024FF00003A0D100F023
:1052B0008BFC80468146A5E70122C5E701260D96B5
:1052C000A2E40E2E8CBF0023012300211D40616447
:1052D000B9E401230E9309930593F6E70B990C9A11
:1052E000204600F0BDFD0B90FFF7AABBDDF81C9037
:1052F000079522E4DDE912674FF00208ECE4099D0E
:10530000002D3FF4C2AD0E9D002D7FF751AE00235E
:105310000022C4F224033046394601F0B5FE0646A9
:1053200008F101000F4601F049FE02460B463046E7
:10533000394601F0A9FE00230022C4F21C0301F04B
:10534000F1FC049DDDF838C0013D80461695A1F1C1
:105350005079E6E4169D0792302289F80020013545
:10536000312204951A70FFF7E8BB0B99204600F034
:1053700077FD0B90FFF764BB0021DDE910230020CF
:10538000C3F6E07101F0CCFC32463B4602F00CF96A
:1053900000283FF40DAE53460AF1FF3A13F8012CF2
:1053A000302AF8D0169DDDF81C9004950793FFF77E
:1053B000C4BBDDF810E00799CDF81CB031230EF125
:1053C000010ECDF810E00B708946FFF7A6BB159DC6
:1053D000002D6BD003F233430C9E0A9D04E4002A97
:1053E0000B96CC463E46059F13DD0B99CDF80490F5
:1053F0000122204600F084FD31460B9000F0DEFDD6
:105400000028DDF804C040F38480392F6DD00AF104
:105410003107089BDDF81C901F70591C4546079109
:10542000E046FFF77ABBCDF80090009DDDF81C90B8
:10543000179C07952A46FFF7C1BA02D1FB073FF533
:105440008EAD5B460BF1FF3B13F8012C302AF8D0F0
:10545000DDF81C900793FFF760BB002642E5DDE90D
:10546000020132463B4602F077F800283FF43EAF97
:1054700018F0010FDDF81C903FF43AAFFFF791BA36
:10548000D8F80410204600F06FFBD8F810309A1CB2
:105490000546920008F10C010C30FDF7C1F92046D9
:1054A0002946012200F02CFD844692E6189B0C9EB2
:1054B0000A9DC3F13603FFF797BB0B963E46059F47
:1054C000392FCC4611D00899089DDDF81C90013782
:1054D00001312F7007914546E046FFF71EBB0B9642
:1054E00045463E46C846059F2DE5089B079939224B
:1054F00045461A70E04603F1010B3AE50B963E462D
:10550000059F392FCC46F0D0BBF1000F3FF77FAF9E
:105510007FE77FF47EAFFA077FF57BAF75E74FF04B
:105520000208FFF7D9BB009EDDF81C9007963246B3
:10553000FFF744BA0E9D0995FFF7D2BA3FF4AEAA21
:10554000C3F13C0321E500BF70B50C46054631B1FF
:1055500010B1836B002B30D0B4F90C300BB90020A4
:1055600070BD2846214600F0E7F8E36A06463BB1E5
:105570002846E169984736EA200628BF4FF0FF36F3
:10558000A3891B061CD4216B41B104F1400399424D
:1055900002D0284600F038F900232363616C21B162
:1055A000284600F031F900236364FCF755FE002320
:1055B000A381FCF753FE304670BDFCF7D1FDCBE76D
:1055C0002846216900F020F9DDE700BF40F2504392
:1055D000C2F2000301461868FFF7B6BF8B899AB282
:1055E0002DE9F0410D46110780463CD46A6843F42A
:1055F0000063002AAB815ADDAC6A002C4CD09BB210
:1056000003F480560022B6B2D8F80070C8F8002023
:10561000002E50D02A6D5E0705D569682B6B521A93
:105620000BB1EB6BD21A4046E9690023A047441C3A
:105630004CD0AB892A6923F400639BB200212A6015
:10564000DA04AB8169604ED4296BC8F8007019B3D5
:1056500005F14003994202D0404600F0D5F8002001
:105660002863BDE8F0812E69B6B191072C6808BFA8
:105670006B692E6018BF0023A41BAB600AE03246A2
:1056800023466F6AE9694046B8470028C0EB040426
:10569000064404DD002CF2DC0020BDE8F081AB897B
:1056A00043F04003AB814FF0FF30BDE8F081EA6B7F
:1056B000002AA1DCF0E7324601234046E969A04711
:1056C000431C02461ED0AB89AC6AA4E7D8F8003070
:1056D0005BB9A9896B6021F400639BB22A69AB8135
:1056E000DB042A60B0D52865AEE71D2B01D0162B50
:1056F0001BD1A9892B6921F400610022A9812B60AB
:105700006A60A1E7D8F80030002BDCD01D2B18BF51
:10571000162B15BFAB89C8F8007043F04003304624
:105720001CBFAB811046BDE8F081AB8943F040035C
:10573000AB81BDE8F08100BF10B5044682B008B16E
:10574000836B53B1B1F90C0008B902B010BD20460B
:1057500002B0BDE81040FFF741BF0191FCF700FD2A
:105760000199EFE7F8B540F25444C2F200040F4645
:105770000546FDF739F9A3685E6826F00306F71BB6
:1057800007F6EF773F0B013F3F03B7F5805F07DB7D
:1057900028460021FDF740F9A3683344984204D01D
:1057A0002846FDF723F90020F8BD28467942FDF789
:1057B00033F9013010D048F6F423C2F20003A16897
:1057C0001A68F61B46F001062846D71B4E601F607C
:1057D000FDF70CF90120F8BD28460021FDF71CF962
:1057E000A368C21A0F2ADBDD40F66004C2F200048F
:1057F00048F6F4212468C2F2000142F00102001BC5
:105800005A600860CCE700BF2DE9F8430E46814698
:10581000002960D0FDF7E8F856F8041CA6F108044A
:1058200021F00103E21840F254455768C2F2000526
:1058300027F00300AF68974263D011F0010C50606D
:1058400018BF002111D156F8081C641A05F1080888
:10585000A668464518BFD4F80C800B441DBFC6F897
:105860000C806146C8F80860012116187668F607B2
:1058700008D40344906811B9494EB04260D0D26850
:10588000C260906043F001026260E350F1B9B3F589
:10589000007F22D35A0A042A5BD898093830410085
:1058A00005EB810540F25441AA68AA42C2F2000108
:1058B0005BD0516821F003018B4202D2926895427D
:1058C000F7D1D368E360A2609C60D4604846BDE82D
:1058D000F843FDF78BB8BDE8F883DB0805EBC3029E
:1058E00068689168E26001269B1006FA03F318438A
:1058F000A160686094604846CC60BDE8F843FDF75D
:1059000075B8CF07184407D456F8083CE41A184471
:10591000A268E368D3609A6040F65C02C2F20002BB
:1059200040F00101136861609842AC60CED348F644
:10593000F023C2F2000348461968FFF713FFC5E7DA
:1059400043F001026C612C61E060A0606260E35092
:10595000BCE7142A9CBF02F15B004100A0D9542A85
:105960000CD8180B6E3041009AE74B688010012567
:1059700005FA00F003434B601346A3E7B2F5AA7F94
:1059800003D8D80B773041008AE740F254518A425D
:105990009DBF980C7C304100FC2188BF7E207FE7B2
:1059A0005C04002040F69C00C2F20000704700BF7B
:1059B00040F6BC03C2F200031868704740F664006A
:1059C000C2F20000704700BF70B548F61C34C2F246
:1059D000000406460025084611461A462560FAF7D7
:1059E000FDFE431C00D070BD2368002BFBD033604C
:1059F00070BD00BFF0B58B899AB2960791B00C4686
:105A000005463AD4B1F90E10002917DB01AA00F0BF
:105A1000D5FC002810DB029B03F47043B3F5005162
:105A20004F424F41B3F5004F2FD0A38943F4006399
:105A3000A3814FF480660BE0A3899AB212F0800F25
:105A400043F40063A38114BF40264FF4806600270F
:105A500028463146FCF732FC002830D0A28942F2B9
:105A60005513C0F6000342F08002EB632060206112
:105A70006661A281BFB911B0F0BD01F143030122FB
:105A80000B600B614A6111B0F0BD42F63133A26A7E
:105A9000C0F600039A42C8D1A3894FF4806633430D
:105AA000A381E664D4E72846B4F90E1000F024FE82
:105AB0000028E0D0A38943F00103A381DBE7A38999
:105AC0009A05D8D404F1430243F002030121A381D3
:105AD000226022616161CEE7830770B4C9B23FD012
